{"abi":[{"type":"constructor","inputs":[{"name":"_addr","type":"address","internalType":"address"}],"stateMutability":"nonpayable"},{"type":"function","name":"_easylinks","inputs":[{"name":"","type":"bytes32","internalType":"bytes32"}],"outputs":[{"name":"easylink","type":"bytes32","internalType":"bytes32"},{"name":"isPaid","type":"bool","internalType":"bool"},{"name":"amount","type":"uint256","internalType":"uint256"}],"stateMutability":"view"},{"type":"function","name":"claim","inputs":[{"name":"_code","type":"bytes32","internalType":"bytes32"}],"outputs":[{"name":"","type":"bool","internalType":"bool"}],"stateMutability":"nonpayable"},{"type":"function","name":"cusdToken","inputs":[],"outputs":[{"name":"","type":"address","internalType":"contract IERC20"}],"stateMutability":"view"},{"type":"function","name":"generateLink","inputs":[{"name":"_amount","type":"uint256","internalType":"uint256"}],"outputs":[{"name":"","type":"bytes32","internalType":"bytes32"}],"stateMutability":"nonpayable"},{"type":"event","name":"LinkGenerated","inputs":[{"name":"creator","type":"address","indexed":true,"internalType":"address"},{"name":"link","type":"bytes32","indexed":false,"internalType":"bytes32"},{"name":"amount","type":"uint256","indexed":false,"internalType":"uint256"}],"anonymous":false},{"type":"event","name":"PaymentClaimed","inputs":[{"name":"claimant","type":"address","indexed":true,"internalType":"address"},{"name":"link","type":"bytes32","indexed":false,"internalType":"bytes32"},{"name":"amount","type":"uint256","indexed":false,"internalType":"uint256"}],"anonymous":false},{"type":"error","name":"alreadyCashOut","inputs":[]}],"bytecode":{"object":"0x6080604052348015600f57600080fd5b5060405161050d38038061050d833981016040819052602c916050565b600080546001600160a01b0319166001600160a01b0392909216919091179055607e565b600060208284031215606157600080fd5b81516001600160a01b0381168114607757600080fd5b9392505050565b6104808061008d6000396000f3fe608060405234801561001057600080fd5b506004361061004c5760003560e01c8063bd66528a14610051578063beaa414814610079578063cae078431461009a578063f8300808146100c5575b600080fd5b61006461005f366004610408565b610114565b60405190151581526020015b60405180910390f35b61008c610087366004610408565b610275565b604051908152602001610070565b6000546100ad906001600160a01b031681565b6040516001600160a01b039091168152602001610070565b6100f96100d3366004610408565b600160208190526000918252604090912080549181015460029091015460ff9091169083565b60408051938452911515602084015290820152606001610070565b60008181526001602081905260408220015460ff161561014757604051630b1fe82d60e11b815260040160405180910390fd5b60008054838252600160205260409182902060020154915163a9059cbb60e01b815233600482015260248101929092526001600160a01b03169063a9059cbb906044016020604051808303816000875af11580156101a9573d6000803e3d6000fd5b505050506040513d601f19601f820116820180604052508101906101cd9190610421565b6102105760405162461bcd60e51b815260206004820152600f60248201526e151c985b9cd9995c8819985a5b1959608a1b60448201526064015b60405180910390fd5b600082815260016020818152604092839020808301805460ff191690931790925560029091015482518581529182015233917f73be3d1d649c2ae1f17f9e04d874a171751e238a8260c3d567234eec4e12c5f7910160405180910390a2506001919050565b6000806102c433426040516bffffffffffffffffffffffff19606084901b1660208201526034810182905260009060540160405160208183030381529060405280519060200120905092915050565b6040805160608101825282815260006020808301828152838501898152868452600192839052858420945185559051918401805460ff191692151592909217909155516002909201919091555490516323b872dd60e01b8152336004820152306024820152604481018690529192506001600160a01b0316906323b872dd906064016020604051808303816000875af1158015610365573d6000803e3d6000fd5b505050506040513d601f19601f820116820180604052508101906103899190610421565b6103c75760405162461bcd60e51b815260206004820152600f60248201526e151c985b9cd9995c8819985a5b1959608a1b6044820152606401610207565b604080518281526020810185905233917fcc4b44b72dd5c5c0255d1f57de2bf5cc208e5d26cef230a2ee1c6dfe49276d40910160405180910390a292915050565b60006020828403121561041a57600080fd5b5035919050565b60006020828403121561043357600080fd5b8151801515811461044357600080fd5b939250505056fea264697066735822122008ddabf6719a1b8cc590ad199767f597cff82d4ecae59ac66ae5c3e651a6dbf164736f6c63430008190033","linkReferences":{}},"methodIdentifiers":{"_easylinks(bytes32)":"f8300808","claim(bytes32)":"bd66528a","cusdToken()":"cae07843","generateLink(uint256)":"beaa4148"},"id":1}